:100000000C9434000C9451000C9451000C94510049
:100010000C9451000C9451000C9451000C9451001C
:100020000C9451000C9451000C9451000C94E2007B
:100030000C9451000C9451000C94B9000C94510094
:100040000C9451000C9451000C9451000C945100EC
:100050000C9451000C9451000C9451000C945100DC
:100060000C9451000C94510011241FBECFEFD8E026
:10007000DEBFCDBF11E0A0E0B1E0E4EAF6E002C0EF
:1000800005900D92A230B107D9F721E0A2E0B1E0CE
:1000900001C01D92A639B207E1F70E941B030C9420
:1000A00050030C940000259A90E285B1892785B908
:1000B0002FEF39E688E1215030408040E1F700C061
:1000C0000000F3CF0F931F93CF93DF938AEF93E05A
:1000D0000E943A030E94200100E010E0C80188510C
:1000E0009C4F0E943203E80193E0CC0FDD1F9A95EC
:1000F000E1F7CA5EDE4F482F50E068EE73E080E023
:1001000090E00E94DE02288339834A835B836C83FC
:100110007D838E839F830F5F1F4F00311105F1F6A2
:1001200084B5826084BD85B5826085BD80916E0096
:10013000826080936E0081E087BD80918000809313
:100140008000809181008A608093810080916F009F
:10015000826080936F0088EF93E00E943A0390934F
:100160008900809388007894DF91CF911F910F913F
:1001700008951F920F920FB60F9211242F933F9361
:100180004F935F936F937F938F939F93AF93BF939F
:10019000EF93FF930E949301FF91EF91BF91AF9175
:1001A0009F918F917F916F915F914F913F912F918F
:1001B0000F900FBE0F901F901895FC0184819581C0
:1001C0000C9432031F920F920FB60F9211240F93CB
:1001D0001F932F933F934F935F936F937F938F93CF
:1001E0009F93AF93BF93CF93DF93EF93FF9306E17A
:1001F00011E0C0E0D0E0C8010E94DD00FE01EC5F2C
:10020000FE4F8083C8010E9408032196085F1F4F9C
:10021000C031D10581F7FF91EF91DF91CF91BF916F
:10022000AF919F918F917F916F915F914F913F918E
:100230002F911F910F910F900FBE0F901F90189547
:100240009093150180931401109203011092020102
:1002500080E090E0FC01EC5FFE4F1082019680315F
:100260009105C1F7809114019091150180FD529A7A
:10027000809114019091150181FD539A8091140190
:100280009091150182FD549A80911401909115016D
:1002900083FD559A809114019091150184FD569A21
:1002A000809114019091150185FD579A8091140158
:1002B0009091150186FD209A80911401909115016D
:1002C00087FD219A809114019091150190FD229A49
:1002D000809114019091150191FD239A8091140150
:1002E0009091150192FD249A80911401909115012D
:1002F00093FD259A809114019091150194FD389AEF
:10030000809114019091150195FD399A8091140105
:100310009091150196FD3A9A8091140190911501E2
:1003200097FD3B9A0895809114019091150180FFEB
:100330000CC080910401209102013091030190E0F2
:100340002817390710F45A9A01C05A98809114015D
:100350009091150181FF0CC080910501209102014F
:100360003091030190E02817390710F45B9A01C01F
:100370005B98809114019091150182FF0CC08091CF
:100380000601209102013091030190E028173907FE
:1003900010F45C9A01C05C98809114019091150151
:1003A00083FF0CC08091070120910201309103016D
:1003B00090E02817390710F45D9A01C05D9880918C
:1003C00014019091150184FF0CC0809108012091C7
:1003D00002013091030190E02817390710F45E9A6A
:1003E00001C05E98809114019091150185FF0CC0A9
:1003F00080910901209102013091030190E02817BA
:10040000390710F45F9A01C05F98809114019091B0
:10041000150186FF0CC080910A01209102013091E4
:10042000030190E02817390710F4289A01C0289892
:10043000809114019091150187FF0CC080910B01F0
:10044000209102013091030190E02817390710F440
:10045000299A01C02998809114019091150190FF6B
:100460000CC080910C01209102013091030190E0B9
:100470002817390710F42A9A01C02A98809114018C
:100480009091150191FF0CC080910D012091020106
:100490003091030190E02817390710F42B9A01C01E
:1004A0002B98809114019091150192FF0CC08091BE
:1004B0000E01209102013091030190E028173907C5
:1004C00010F42C9A01C02C98809114019091150180
:1004D00093FF0CC080910F01209102013091030124
:1004E00090E02817390710F42D9A01C02D988091BB
:1004F00014019091150194FF0CC08091100120917E
:1005000002013091030190E02817390710F4409A56
:1005100001C04098809114019091150195FF0CC085
:1005200080911101209102013091030190E0281780
:10053000390710F4419A01C04198809114019091BB
:10054000150196FF0CC0809112012091020130919B
:10055000030190E02817390710F4429A01C042982D
:10056000809114019091150197FF0CC080911301A7
:10057000209102013091030190E02817390710F40F
:10058000439A01C0439880910201909103018F3FEB
:10059000910530F48091020190910301019602C00F
:1005A00080E090E090930301809302010895DC01C4
:1005B0001496ED91FC91159780810895CF93DF9368
:1005C000CDB7DEB728970FB6F894DEBF0FBECDBF0C
:1005D0009C01E62FF42F452F9A8389837C838F2FEC
:1005E000952F0E941E03820F931F9E838D83488741
:1005F0003A814E2F5C81682F7E818F2F98852896B7
:100600000FB6F894DEBF0FBECDBFDF91CF91089536
:10061000FC01448155818081918122813381215067
:100620003109280F391F4217530711F0CA010196EB
:100630009583848308950E946200FFCFAA1BBB1B91
:1006400051E107C0AA1FBB1FA617B70710F0A61BD2
:10065000B70B881F991F5A95A9F780959095BC01F3
:10066000CD010895F999FECF92BD81BDF89A9927E1
:1006700080B50895A8E1B0E042E050E00C94420358
:10068000DC01CB01FC01F999FECF06C0F2BDE1BD52
:10069000F89A319600B40D9241505040B8F7089541
:0406A000F894FFCFFC
:0206A400D7027B
:00000001FF
