:100000000C9434000C9451000C9451000C94510049
:100010000C9451000C9451000C9451000C9451001C
:100020000C9451000C9451000C9451000C9400015C
:100030000C9451000C9451000C94DC000C94510071
:100040000C9451000C9451000C9451000C945100EC
:100050000C9451000C9451000C9451000C945100DC
:100060000C9451000C94510011241FBECFEFD8E026
:10007000DEBFCDBF11E0A0E0B1E0E6E4F7E002C0F2
:1000800005900D92A230B107D9F721E0A2E0B1E0CE
:1000900001C01D92A639B207E1F70E946C030C94CF
:1000A000A1030C940000FC01848195810C948303CE
:1000B000259A90E285B1892785B92FEF39E688E145
:1000C000215030408040E1F700C00000F3CFEF92B4
:1000D000FF920F931F93CF93DF938BEF93E00E94D8
:1000E0008B030E94410183E590E09093010180938E
:1000F000000126E1E22E21E0F22E00E010E0C8012E
:1001000088519C4F0E948303E80193E0CC0FDD1FD0
:100110009A95E1F7CA5EDE4F482F50E068EE73E033
:1001200080E090E00E942F03288339834A835B8319
:100130006C837D838E839F83E0910001F0910101A8
:10014000C7010995F801EE5FFE4F80830F5F1F4FD7
:1001500088E0E80EF11C0031110589F684B5826053
:1001600084BD85B5816085BD80916E00826080937D
:100170006E0088EF93E00E94830387BD809180002A
:1001800080938000809181008B60809381008091BA
:100190006F00826080936F0089EF93E00E948B0371
:1001A00090938900809388007894DF91CF911F917C
:1001B0000F91FF90EF9008951F920F920FB60F923C
:1001C00011242F933F934F935F936F937F938F935C
:1001D0009F93AF93BF93EF93FF930E94B401FF915E
:1001E000EF91BF91AF919F918F917F916F915F91AF
:1001F0004F913F912F910F900FBE0F901F90189528
:100200001F920F920FB60F9211240F931F932F93EB
:100210003F934F935F936F937F938F939F93AF938E
:10022000BF93CF93DF93EF93FF9306E111E0C0E01C
:10023000D0E0E0910001F0910101C8010995FE01B3
:10024000EE5FFE4F8083C8010E9459032196085F2C
:100250001F4FC031D10569F7FF91EF91DF91CF9129
:10026000BF91AF919F918F917F916F915F914F91CE
:100270003F912F911F910F910F900FBE0F901F90E4
:10028000189590931301809312011092150110920A
:10029000140180E090E0FC01EE5FFE4F10820196B9
:1002A00080319105C1F7809112019091130180FD79
:1002B000529A809112019091130181FD539A80917D
:1002C00012019091130182FD549A80911201909134
:1002D000130183FD559A809112019091130184FDC1
:1002E000569A809112019091130185FD579A809141
:1002F00012019091130186FD209A80911201909134
:10030000130187FD219A809112019091130190FDB4
:10031000229A809112019091130191FD239A80916C
:1003200012019091130192FD249A809112019091F3
:10033000130193FD259A809112019091130194FD70
:10034000389A809112019091130195FD399A80910C
:1003500012019091130196FD3A9A809112019091A9
:10036000130197FD3B9A089580911201909113011A
:1003700080FF0DC080910201209114013091150180
:1003800090E02817390718F48BB1846002C08BB154
:100390008B7F8BB9809112019091130181FF0DC069
:1003A00080910301209114013091150190E02817EC
:1003B000390718F48BB1886002C08BB1877F8BB985
:1003C000809112019091130182FF0DC08091040170
:1003D000209114013091150190E02817390718F485
:1003E0008BB1806102C08BB18F7E8BB9809112017D
:1003F0009091130183FF0DC080910501209114019C
:100400003091150190E02817390718F48BB18062FC
:1004100002C08BB18F7D8BB9809112019091130135
:1004200084FF0DC0809106012091140130911501C7
:1004300090E02817390718F48BB1806402C08BB1A3
:100440008F7B8BB9809112019091130185FF0DC0B4
:1004500080910701209114013091150190E0281737
:10046000390718F48BB1806802C08BB18F778BB9D4
:10047000809112019091130186FF0DC080910801B7
:10048000209114013091150190E02817390718F4D4
:1004900085B1816002C085B18E7F85B980911201DE
:1004A0009091130187FF0DC08091090120911401E3
:1004B0003091150190E02817390718F485B1826052
:1004C00002C085B18D7F85B9809112019091130191
:1004D00090FF0DC080910A01209114013091150107
:1004E00090E02817390718F485B1846002C085B1FF
:1004F0008B7F85B9809112019091130191FF0DC0FE
:1005000080910B01209114013091150190E0281782
:10051000390718F485B1886002C085B1877F85B935
:10052000809112019091130192FF0DC080910C01F6
:10053000209114013091150190E02817390718F423
:1005400085B1806102C085B18F7E85B9809112012D
:100550009091130193FF0DC080910D012091140122
:100560003091150190E02817390718F485B18062A1
:1005700002C085B18F7D85B98091120190911301E0
:1005800094FF0DC080910E0120911401309115014E
:1005900090E02817390718F488B1816002C088B14B
:1005A0008E7F88B9809112019091130195FF0DC043
:1005B00080910F01209114013091150190E02817CE
:1005C000390718F488B1826002C088B18D7F88B97C
:1005D000809112019091130196FF0DC0809110013E
:1005E000209114013091150190E02817390718F473
:1005F00088B1846002C088B18B7F88B98091120174
:100600009091130197FF0DC0809111012091140169
:100610003091150190E02817390718F488B18860E7
:1006200002C088B1877F88B980911401909115012B
:100630008F3F910530F4809114019091150101963E
:1006400002C080E090E0909315018093140108951A
:10065000DC011496ED91FC91159780810895CF935C
:10066000DF93CDB7DEB728970FB6F894DEBF0FBE85
:10067000CDBF9C01E62FF42F452F9A8389837C837D
:100680008F2F952F0E946F03820F931F9E838D8360
:1006900048873A814E2F5C81682F7E818F2F988505
:1006A00028960FB6F894DEBF0FBECDBFDF91CF9175
:1006B0000895FC014481558180819181228133819B
:1006C00021503109280F391F4217530711F0CA0171
:1006D00001969583848308950E946700FFCFAA1B2B
:1006E000BB1B51E107C0AA1FBB1FA617B70710F01D
:1006F000A61BB70B881F991F5A95A9F7809590954F
:10070000BC01CD010895F999FECF92BD81BDF89A43
:10071000992780B50895A8E1B0E042E050E00C943C
:100720009303DC01CB01FC01F999FECF06C0F2BDB9
:10073000E1BDF89A319600B40D9241505040B8F79F
:060740000895F894FFCFBC
:02074600280386
:00000001FF
