:100000000C9434000C9451000C9451000C94510049
:100010000C9451000C9451000C9451000C9451001C
:100020000C9451000C9451000C9451000C94E2007B
:100030000C9451000C9451000C94B9000C94510094
:100040000C9451000C9451000C9451000C945100EC
:100050000C9451000C9451000C9451000C945100DC
:100060000C9451000C94510011241FBECFEFD8E026
:10007000DEBFCDBF11E0A0E0B1E0E4E0F7E002C0F8
:1000800005900D92A230B107D9F721E0A2E0B1E0CE
:1000900001C01D92A639B207E1F70E944B030C94F0
:1000A00080030C940000259A90E285B1892785B9D8
:1000B0002FEF39E688E1215030408040E1F700C061
:1000C0000000F3CF0F931F93CF93DF938AEF93E05A
:1000D0000E946A030E94200100E010E0C8018851DC
:1000E0009C4F0E946203E80193E0CC0FDD1F9A95BC
:1000F000E1F7CA5EDE4F482F50E068EE73E080E023
:1001000090E00E940E03288339834A835B836C83CB
:100110007D838E839F830F5F1F4F00311105F1F6A2
:1001200084B5826084BD85B5826085BD80916E0096
:10013000826080936E0081E087BD80918000809313
:100140008000809181008A608093810080916F009F
:10015000826080936F0088EF93E00E946A0390931F
:100160008900809388007894DF91CF911F910F913F
:1001700008951F920F920FB60F9211242F933F9361
:100180004F935F936F937F938F939F93AF93BF939F
:10019000EF93FF930E949301FF91EF91BF91AF9175
:1001A0009F918F917F916F915F914F913F912F918F
:1001B0000F900FBE0F901F901895FC0184819581C0
:1001C0000C9462031F920F920FB60F9211240F939B
:1001D0001F932F933F934F935F936F937F938F93CF
:1001E0009F93AF93BF93CF93DF93EF93FF9306E17A
:1001F00011E0C0E0D0E0C8010E94DD00FE01EC5F2C
:10020000FE4F8083C8010E9438032196085F1F4F6C
:10021000C031D10581F7FF91EF91DF91CF91BF916F
:10022000AF919F918F917F916F915F914F913F918E
:100230002F911F910F910F900FBE0F901F90189547
:100240009093150180931401109203011092020102
:1002500080E090E0FC01EC5FFE4F1082019680315F
:100260009105C1F7809114019091150180FD529A7A
:10027000809114019091150181FD539A8091140190
:100280009091150182FD549A80911401909115016D
:1002900083FD559A809114019091150184FD569A21
:1002A000809114019091150185FD579A8091140158
:1002B0009091150186FD209A80911401909115016D
:1002C00087FD219A809114019091150190FD229A49
:1002D000809114019091150191FD239A8091140150
:1002E0009091150192FD249A80911401909115012D
:1002F00093FD259A809114019091150194FD389AEF
:10030000809114019091150195FD399A8091140105
:100310009091150196FD3A9A8091140190911501E2
:1003200097FD3B9A0895809114019091150180FFEB
:100330000DC080910401209102013091030190E0F1
:100340002817390718F48BB1846002C08BB18B7FFA
:100350008BB9809114019091150181FF0DC080919E
:100360000501209102013091030190E0281739071F
:1003700018F48BB1886002C08BB1877F8BB98091F4
:1003800014019091150182FF0DC08091060120910A
:1003900002013091030190E02817390718F48BB15E
:1003A000806102C08BB18F7E8BB9809114019091D6
:1003B000150183FF0DC0809107012091020130914A
:1003C000030190E02817390718F48BB1806202C04E
:1003D0008BB18F7D8BB9809114019091150184FFB1
:1003E0000DC080910801209102013091030190E03D
:1003F0002817390718F48BB1806402C08BB18F7B4A
:100400008BB9809114019091150185FF0DC08091E9
:100410000901209102013091030190E0281739076A
:1004200018F48BB1806802C08BB18F778BB9809143
:1004300014019091150186FF0DC080910A01209151
:1004400002013091030190E02817390718F485B1B3
:10045000816002C085B18E7F85B980911401909131
:10046000150187FF0DC080910B0120910201309191
:10047000030190E02817390718F485B1826002C0A3
:1004800085B18D7F85B9809114019091150190FF00
:100490000DC080910C01209102013091030190E088
:1004A0002817390718F485B1846002C085B18B7FA5
:1004B00085B9809114019091150191FF0DC0809133
:1004C0000D01209102013091030190E028173907B6
:1004D00018F485B1886002C085B1877F85B98091A5
:1004E00014019091150192FF0DC080910E01209191
:1004F00002013091030190E02817390718F485B103
:10050000806102C085B18F7E85B980911401909180
:10051000150193FF0DC080910F01209102013091D0
:10052000030190E02817390718F485B1806202C0F2
:1005300085B18F7D85B9809114019091150194FF4B
:100540000DC080911001209102013091030190E0D3
:100550002817390718F488B1816002C088B18E7FEE
:1005600088B9809114019091150195FF0DC080917B
:100570001101209102013091030190E02817390701
:1005800018F488B1826002C088B18D7F88B98091EB
:1005900014019091150196FF0DC0809112012091D8
:1005A00002013091030190E02817390718F488B14F
:1005B000846002C088B18B7F88B9809114019091CA
:1005C000150197FF0DC08091130120910201309118
:1005D000030190E02817390718F488B1886002C039
:1005E00088B1877F88B980910201909103018F3F84
:1005F000910530F48091020190910301019602C0AF
:1006000080E090E090930301809302010895DC0163
:100610001496ED91FC91159780810895CF93DF9307
:10062000CDB7DEB728970FB6F894DEBF0FBECDBFAB
:100630009C01E62FF42F452F9A8389837C838F2F8B
:10064000952F0E944E03820F931F9E838D834887B0
:100650003A814E2F5C81682F7E818F2F9885289656
:100660000FB6F894DEBF0FBECDBFDF91CF910895D6
:10067000FC01448155818081918122813381215007
:100680003109280F391F4217530711F0CA0101968B
:100690009583848308950E946200FFCFAA1BBB1B31
:1006A00051E107C0AA1FBB1FA617B70710F0A61B72
:1006B000B70B881F991F5A95A9F780959095BC0193
:1006C000CD010895F999FECF92BD81BDF89A992781
:1006D00080B50895A8E1B0E042E050E00C947203C8
:1006E000DC01CB01FC01F999FECF06C0F2BDE1BDF2
:1006F000F89A319600B40D9241505040B8F70895E1
:04070000F894FFCF9B
:020704000703E9
:00000001FF
