:100000000C9434000C9451000C9451000C94510049
:100010000C9451000C9451000C9451000C9451001C
:100020000C9451000C9451000C9451000C94EE006F
:100030000C9451000C9451000C94CA000C94510083
:100040000C9451000C9451000C9451000C945100EC
:100050000C9451000C9451000C9451000C945100DC
:100060000C9451000C94510011241FBECFEFD8E026
:10007000DEBFCDBF13E0A0E0B1E0E0EEF6E002C0ED
:1000800005900D92A030B107D9F723E0A0E0B3E0CE
:1000900001C01D92AC35B207E1F70E9457030C94E2
:1000A0006E030C940000259A90E285B1892785B9EA
:1000B0002FEF39E688E1215030408040E1F700C061
:1000C0000000F3CFCF92DF92EF92FF920F931F9336
:1000D000CF93DF938FEF91E00E942C0194E1E92E02
:1000E00093E0F92EC12CD12C00E010E0E80183E070
:1000F000CC0FDD1F8A95E1F7CC5EDC4FA60160E0F6
:1001000072E080E091E00E941303288339834A83E0
:100110005B836C837D838E839F83C7010E94500322
:10012000F801E050FD4F80830F5F1F4F8AE0C80E3B
:10013000D11C88E0E80EF11C09301105B9F684B530
:10014000826084BD85B5816085BD80916E008260CE
:1001500080936E0084E687BD80918000809380004C
:10016000809181008B608093810080916F0082601C
:1001700080936F0080ED97E09093890080938800D2
:100180007894DF91CF911F910F91FF90EF90DF90C6
:10019000CF9008951F920F920FB60F9211242F93B4
:1001A0003F934F935F936F937F938F939F93AF93FF
:1001B000BF93EF93FF930E949F01FF91EF91BF9137
:1001C000AF919F918F917F916F915F914F913F91EF
:1001D0002F910F900FBE0F901F9018951F920F92A6
:1001E0000FB60F9211240F931F932F933F934F93AA
:1001F0005F936F937F938F939F93AF93BF93CF93AF
:10020000DF93EF93FF9304E113E0C0E0D0E0C80177
:100210000E945003FE01E050FD4F8083C8010E9400
:100220003D032196085F1F4FC930D10581F7FF912B
:10023000EF91DF91CF91BF91AF919F918F917F917E
:100240006F915F914F913F912F911F910F910F905F
:100250000FBE0F901F901895909311038093100379
:10026000109213031092120380E090E0FC01E05022
:10027000FD4F1082019680319105C1F780911003E6
:100280009091110380FD529A809110039091110377
:1002900081FD539A809110039091110382FD549A2D
:1002A000809110039091110383FD559A8091100362
:1002B0009091110384FD569A80911003909111033F
:1002C00085FD579A809110039091110386FD209A25
:1002D000809110039091110387FD219A8091100362
:1002E0009091110390FD259A809110039091110334
:1002F00091FD239A809110039091110392FD249A0D
:10030000809110039091110393FD389A809110030E
:100310009091110394FD399A8091100390911103EB
:1003200095FD3A9A809110039091110396FD3B9AA6
:10033000809110039091110397FD3C9A089580914C
:1003400010039091110380FF0DC080910003209154
:1003500012033091130390E02817390718F48BB17A
:10036000846002C08BB18B7F8BB980911003909118
:10037000110381FF0DC08091010320911203309180
:10038000130390E02817390718F48BB1886002C076
:100390008BB1877F8BB9809110039091110382FFFD
:1003A0000DC080910203209112033091130390E05D
:1003B0002817390718F48BB1806102C08BB18F7E8A
:1003C0008BB9809110039091110383FF0DC0809130
:1003D0000303209112033091130390E0281739078B
:1003E00018F48BB1806202C08BB18F7D8BB9809184
:1003F00010039091110384FF0DC08091040320919C
:1004000012033091130390E02817390718F48BB1C9
:10041000806402C08BB18F7B8BB980911003909167
:10042000110385FF0DC080910503209112033091C7
:10043000130390E02817390718F48BB1806802C0C5
:100440008BB18F778BB9809110039091110386FF48
:100450000DC080910603209112033091130390E0A8
:100460002817390718F485B1816002C085B18E7FE5
:1004700085B9809110039091110387FF0DC0809181
:100480000703209112033091130390E028173907D6
:1004900018F485B1826002C085B18D7F85B98091E5
:1004A00010039091110390FF0DC0809108032091DB
:1004B00012033091130390E02817390718F485B11F
:1004C000806202C085B18F7D85B9809110039091C3
:1004D000110391FF0DC08091090320911203309107
:1004E000130390E02817390718F485B1886002C01B
:1004F00085B1877F85B9809110039091110392FF98
:100500000DC080910A03209112033091130390E0F3
:100510002817390718F485B1806102C085B18F7E34
:1005200085B9809110039091110393FF0DC08091C4
:100530000B03209112033091130390E02817390721
:1005400018F488B1816002C088B18E7F88B980912B
:1005500010039091110394FF0DC080910C03209122
:1005600012033091130390E02817390718F488B16B
:10057000826002C088B18D7F88B98091100390910C
:10058000110395FF0DC080910D032091120330914E
:10059000130390E02817390718F488B1846002C06B
:1005A00088B18B7F88B9809110039091110396FFD9
:1005B0000DC080910E03209112033091130390E03F
:1005C0002817390718F488B1886002C088B1877F7E
:1005D00088B9809110039091110397FF0DC080910D
:1005E0000F03209112033091130390E0281739076D
:1005F00018F488B1806102C088B18F7E88B980917B
:100600001203909113038F3F910530F480911203F0
:1006100090911303019602C080E090E09093130341
:10062000809312030895CF93DF93CDB7DEB7289759
:100630000FB6F894DEBF0FBECDBF9C01E62FF42F9E
:10064000452F9A8389837C838F2F952F0E945A038D
:10065000820F931F9E838D8348873A814E2F5C8142
:10066000682F7E818F2F988528960FB6F894DEBF6D
:100670000FBECDBFDF91CF910895FC01448155811C
:10068000808191812281338121503109280F391FC6
:100690004217530711F0CA01019695838483089588
:1006A000DC011496ED91FC911597808108950E94CC
:1006B0006200FFCFAA1BBB1B51E107C0AA1FBB1FD3
:1006C000A617B70710F0A61BB70B881F991F5A95DE
:1006D000A9F780959095BC01CD010895F894FFCFBE
:1006E000808183848687898A8C8E8F919294959756
:1006F000989A9B9D9EA0A2A3A5A6A7A9AAACADAFC0
:10070000B0B2B3B5B6B7B9BABCBDBEC0C1C2C4C53C
:10071000C6C8C9CACBCDCECFD0D2D3D4D5D6D7D9DF
:10072000DADBDCDDDEDFE0E1E2E3E4E5E6E7E8E9B1
:10073000EAEAEBECEDEEEEEFF0F1F1F2F3F3F4F5C3
:10074000F5F6F6F7F8F8F9F9FAFAFAFBFBFCFCFC17
:10075000FDFDFDFDFEFEFEFEFEFFFFFFFFFFFFFFB6
:10076000FFFFFFFFFFFFFFFFFEFEFEFEFEFDFDFDA4
:10077000FDFCFCFCFBFBFAFAFAF9F9F8F8F7F6F6DF
:10078000F5F5F4F3F3F2F1F1F0EFEEEEEDECEBEA68
:10079000EAE9E8E7E6E5E4E3E2E1E0DFDEDDDCDB31
:1007A000DAD9D7D6D5D4D3D2D0CFCECDCBCAC9C83B
:1007B000C6C5C4C2C1C0BEBDBCBAB9B7B6B5B3B276
:1007C000B0AFADACAAA9A7A6A5A3A2A09E9D9B9AD7
:1007D0009897959492918F8E8C8A8987868483814D
:1007E000807E7C7B797876757371706E6D6B6A68CC
:1007F00067656462615F5D5C5A5958565553525043
:100800004F4D4C4A494846454342413F3E3D3B3AA5
:1008100039373635343231302F2D2C2B2A292826E2
:100820002524232221201F1E1D1C1B1A19181716F0
:1008300015151413121111100F0E0E0D0C0C0B0ABE
:100840000A0909080707060605050504040303034A
:10085000020202020101010101000000000000008B
:10086000000000000000000001010101010202027D
:100870000203030304040505050606070708090922
:100880000A0A0B0C0C0D0E0E0F1011111213141579
:1008900015161718191A1B1C1D1E1F202122232490
:1008A000252628292A2B2C2D2F3031323435363766
:1008B000393A3B3D3E3F414243454648494A4C4D0B
:1008C0004F505253555658595A5C5D5F616264658A
:1008D00067686A6B6D6E707173757678797B7C7EF4
:00000001FF
