:100000000C9434000C943E000C943E000C943E0082
:100010000C943E000C943E000C943E000C943E0068
:100020000C943E000C943E000C943E000C943E0058
:100030000C943E000C943E000C943E000C943E0048
:100040000C943E000C943E000C943E000C943E0038
:100050000C943E000C943E000C943E000C943E0028
:100060000C943E000C943E0011241FBECFEFD8E04C
:10007000DEBFCDBF0E941A010C9450010C94000009
:1000800030910101409102010092000170E1E2E033
:10009000F1E030FF00C0209A31FF00C0219A32FF0A
:1000A00000C0229A33FF00C0239A34FF00C0249A74
:1000B00035FF00C0259A36FF00C0269A37FF00C0E2
:1000C000279A40FF00C0509A41FF00C0519A42FF5A
:1000D00000C0529A43FF00C0539A44FF00C0549A94
:1000E00045FF00C0559A46FF00C0569A47FF00C022
:1000F000579A000001927A95E9F70895209100013E
:100100003091010140910201E2E0F1E0619130FFA4
:1001100000C0261700F000C0289800C0289A6191FE
:1001200031FF00C0261700F000C0299800C0299AAE
:10013000619132FF00C0261700F000C02A9800C06D
:100140002A9A619133FF00C0261700F000C02B9857
:1001500000C02B9A619134FF00C0261700F000C048
:100160002C9800C02C9A619135FF00C0261700F032
:1001700000C02D9800C02D9A619136FF00C026174F
:1001800000F000C02E9800C02E9A619137FF00C089
:10019000261700F000C02F9800C02F9A619140FFF1
:1001A00000C0261700F000C0589800C0589A61910E
:1001B00041FF00C0261700F000C0599800C0599AAE
:1001C000619142FF00C0261700F000C05A9800C09D
:1001D0005A9A619143FF00C0261700F000C05B9857
:1001E00000C05B9A619144FF00C0261700F000C078
:1001F0005C9800C05C9A619145FF00C0261700F032
:1002000000C05D9800C05D9A619146FF00C026174E
:1002100000F000C05E9800C05E9A619147FF00C088
:10022000261700F000C05F9800C05F9A23952093C6
:10023000000108958FEF9FEF9093020180930101D9
:100240000E9440008FE78093020188E180930301C0
:100250008EE48093040188EC8093050184EB809305
:1002600006011092070186E3809308018AE58093D6
:10027000090110920A018AEE80930B018FEF80939F
:100280000C0180E880930D0183E080930E0184E0EF
:100290008093100188EA809311010E947E00FDCFB7
:0402A000F894FFCF00
:0402A4000102100043
:00000001FF
